:020000040000fa
:080000000001040000000000f3
:020000040000fa
:10000800f4010000f4010000f4010000f401000014
:10001800f4010000f4010000f4010000f401000004
:10002800f4010000f4010000f4010000f4010000f4
:10003800f4010000f4010000f4010000f4010000e4
:10004800f401000094010000f4010000f401000034
:10005800f4010000f4010000f4010000f4010000c4
:10006800f4010000f4010000f4010000f4010000b4
:10007800f4010000f4010000f4010000f4010000a4
:10008800f4010000f4010000f4010000f401000094
:10009800f4010000f4010000f4010000f401000084
:1000a800f4010000f4010000f4010000f401000074
:1000b800f4010000f4010000f4010000f401000064
:1000c800f4010000f4010000f4010000f401000054
:1000d800f4010000f4010000f4010000f401000044
:1000e800f4010000f4010000f4010000f401000034
:0800f800f4010000f401000016
:020000040000fa
:10010800f4010000f4010000f4010000f401000013
:10011800f4010000f4010000f4010000f401000003
:10012800f4010000f4010000f4010000f4010000f3
:10013800f4010000f4010000f4010000f4010000e3
:10014800f401000094010000f4010000f401000033
:10015800f4010000f4010000f4010000f4010000c3
:10016800f4010000f4010000f4010000f4010000b3
:10017800f4010000f4010000f4010000f4010000a3
:10018800f4010000f4010000f4010000f401000093
:10019800f4010000f4010000f4010000f401000083
:1001a800f4010000f4010000f4010000f401000073
:1001b800f4010000f4010000f4010000f401000063
:1001c800f4010000f4010000f4010000f401000053
:1001d800f4010000f4010000f4010000f401000043
:1001e800f4010000f4010000f4010000f401000033
:0801f800f4010000f401000015
:020000040000fa
:100200006f8020000eff20000e018800000000001b
:1002100000012000200288000c000700a02320001d
:100220000100200011000700000020000000e00095
:10023000020032000000020000000000b4010200d1
:10024000000000000040da000000fe004440a90069
:10025000000020000000e000030032000000200049
:10026000a00188004440a800000006009101880019
:10027000800078000000eb0015003700e2804000ad
:1002800032a0b4009101ba00e280400032a0b40074
:100290009102ba00e280400032a0b4000002eb00fc
:1002a000472bde00f507b200602ce10004003a00a5
:1002b0000059eb008301e900fdff3e000400370018
:1002c0006128e100010032000082eb000400070019
:1002d0001101ba000200e000e8ff3a000000060049
:1002e0003159ba008301e9000c0032002159ba00eb
:1002f0008301e900080032000400e00003003a0036
:10030000e280400032a0b400f5ff370011d9ba00f6
:100310008301e900faff3a008100e800e180400033
:1003200032a0b40000000600801f7800841f78000f
:100330003400f80000002000a00188000000fa004e
:100340008520a900941080000442780004407800c1
:1003500000e8b7000080fa003400f9004f0278008e
:100360004f007800004006000400fa00000f7800fb
:10037000110798001e000700300720002900070021
:1003800004802000144278000482fb0004007800fe
:10039000240007000002eb00144088000d00370025
:1003a0000002eb0024408800030037002440800056
:1003b0000402e8002440880025408000743e2000ac
:1003c000848f5200f9ff3600144080000402e800d8
:1003d000144088001540800074bb2000848f5200b8
:1003e000efff3600e4ff37000040da000000fe00b7
:020000040000fa
:1003f0000000fa0004042000a41088000d42a800a8
:100400008d20a80075108000c4ff2f0004826200b8
:10041000741088000de2a8000f42a8000080fa00c6
:10042000000006000200fa00000f78000000000043
:10043000751080000410200004826200e00f52005a
:10044000fbff32006410800066026200e60f52007b
:1004500003003a001e027800841088000300370071
:10046000f40f20001e026200841088000080fa0051
:040470000000060082
:020000040000fa
:10047400000800000600000000000000000000006a
:020000040000fa
:0200000401f009
:04000000e5bf000058
:020000040000fa
:0200000401f009
:04000400ff7f00007a
:00000001FF
