:020000040000fa
:080000000001040000000000f3
:020000040000fa
:100008009401000094010000940100009401000094
:100018009401000094010000940100009401000084
:100028009401000094010000940100003c020000cb
:100038009401000094010000940100009401000064
:100048009401000094010000940100009401000054
:100058009401000094010000940100009401000044
:100068009401000094010000940100009401000034
:100078009401000094010000940100009401000024
:100088009401000094010000940100009401000014
:100098009401000094010000940100009401000004
:1000a80094010000940100009401000094010000f4
:1000b80094010000940100009401000094010000e4
:1000c80094010000940100009401000094010000d4
:1000d80094010000940100009401000094010000c4
:1000e80094010000940100009401000094010000b4
:0800f8009401000094010000d6
:020000040000fa
:100108009401000094010000940100009401000093
:100118009401000094010000940100009401000083
:100128009401000094010000940100003c020000ca
:100138009401000094010000940100009401000063
:100148009401000094010000940100009401000053
:100158009401000094010000940100009401000043
:100168009401000094010000940100009401000033
:100178009401000094010000940100009401000023
:100188009401000094010000940100009401000013
:100198009401000094010000940100009401000003
:1001a80094010000940100009401000094010000f3
:1001b80094010000940100009401000094010000e3
:1001c80094010000940100009401000094010000d3
:1001d80094010000940100009401000094010000c3
:1001e80094010000940100009401000094010000b3
:0801f8009401000094010000d5
:020000040000fa
:100200002f8120000eff20000e018800000000005a
:1002100000012000200288000c0007006030200050
:100220000100200011000700000020000000e00095
:10023000020032000000020000000000c4020200c0
:10024000000000000040da000000fe004440a90069
:10025000000020000000e000030032000000200049
:10026000a00188004440a800000006009101880019
:10027000800078000000eb0015003700e2804000ad
:1002800032a0b4009101ba00e280400032a0b40074
:100290009102ba00e280400032a0b4000002eb00fc
:1002a000472bde00f507b200602ce10004003a00a5
:1002b0000059eb008301e900fdff3e000400370018
:1002c0006128e100010032000082eb000400070019
:1002d0001101ba000200e000e8ff3a000000060049
:1002e0003159ba008301e9000c0032002159ba00eb
:1002f0008301e900080032000400e00003003a0036
:10030000e280400032a0b400f5ff370011d9ba00f6
:100310008301e900faff3a008100e800e180400033
:1003200032a0b400000006000040da000000fe0029
:100330000000fa008c60a90005e1a9008460a90012
:100340000080fa00000006000200fa00000f7800aa
:100350008460a9001e0278000442780067426200af
:1003600067426200674262000482fb00670262002b
:100370004c22dd00a6048000f5ff28008502630002
:1003800004827200a40488009e02780068826200e1
:100390004322de0004427800614262000482fb00d6
:1003a000610262004322dd006604800075ff2f00b9
:1003b0008502630004827200640488000080fa00f1
:1003c000000006000400fa00000f780011079800f2
:1003d0000002eb00040888001e0290001408880048
:1003e0001e027800240888000080fa000000060041
:1003f0000000fa0004088000040078000080fa0081
:10040000000006000200fa00000f78001e027800cb
:0c041000040888000080fa0000000600cc
:020000040000fa
:10041c000200fa00000f78000002eb003440880064
:10042c0000000000344080009e0f5200fdff35009c
:10043c000080fa00000006000400fa001007980083
:10044c0090ff2f00bdff07000000eb00eaff070044
:10045c001e029000040f78009e00780090f82d008a
:10046c00d5ff07000080fa0000000600849fbe0044
:10047c003400f80004002000a40188000000fa00f9
:10048c000002eb0004088800544080000402e800dd
:10049c005440880055408000843e2000848f5200d8
:1004ac0016003a000002eb0054408800041780004c
:1004bc0061026200e00f5200100032000002eb00fb
:1004cc008440880003003700844080000402e80068
:1004dc008440880084408000f40f5200faff3400fe
:1004ec000417800061026200e00f5200030032002a
:1004fc00644080000402e800644088000417800017
:10050c0061026200e00f520017003a006440800064
:10051c00e00f5200140032000002eb00844088000f
:10052c0003003700844080000402e8008440880007
:10053c0084408000f40f5200faff3400041780004e
:10054c0061026200e00f520007003a006440800034
:10055c00e00f5200040032006440800074408800b8
:10056c000002eb00644088008460a9000080fa005f
:10057c003400f9004f02be00004006000000fa00f3
:10058c00a882a800a8a2a800a8c2a800a8e2a80057
:10059c00c682a900c6a2a900c6c2a900c6e2a900cb
:1005ac00de02a80000712200a3ff07000100370043
:1005bc000000000074408000e30f5200fcff340088
:1005cc000002eb0074408800541680004522de00c7
:1005dc006142620004c2ea00614262000482fb00d4
:1005ec00610262004522dd0056168000f5fd2f00e9
:1005fc00850263000482720054168800edff3700f8
:020000040000fa
:10060c0000080000120000000000000000000000c4
:020000040000fa
:0200000401f009
:04000000e5bf000058
:020000040000fa
:0200000401f009
:04000400ff7f00007a
:020000040000fa
:0200000401f009
:04001400ffff0000ea
:00000001FF
